{
  "contractName": "Voting",
  "abi": [
    {
      "constant": true,
      "inputs": [
        {
          "name": "",
          "type": "uint256"
        }
      ],
      "name": "proposals",
      "outputs": [
        {
          "name": "",
          "type": "bytes32"
        }
      ],
      "payable": false,
      "type": "function",
      "stateMutability": "view"
    },
    {
      "constant": false,
      "inputs": [
        {
          "name": "_proposal",
          "type": "bytes32"
        }
      ],
      "name": "addProposal",
      "outputs": [
        {
          "name": "",
          "type": "bool"
        }
      ],
      "payable": false,
      "type": "function",
      "stateMutability": "nonpayable"
    },
    {
      "constant": true,
      "inputs": [],
      "name": "getVotes",
      "outputs": [
        {
          "name": "",
          "type": "uint256[]"
        }
      ],
      "payable": false,
      "type": "function",
      "stateMutability": "view"
    },
    {
      "inputs": [
        {
          "name": "",
          "type": "uint256"
        }
      ],
      "payable": false,
      "type": "function",
      "stateMutability": "view",
      "constant": true,
      "name": "votes",
      "outputs": [
        {
          "name": "",
          "type": "uint256"
        }
      ]
    },
    {
      "anonymous": false,
      "inputs": [
        {
          "indexed": false,
          "name": "proposal",
          "type": "bytes32"
        }
      ],
      "name": "getProposals",
      "type": "function",
      "constant": true,
      "outputs": [
        {
          "name": "",
          "type": "bytes32[]"
        }
      ],
      "payable": false,
      "stateMutability": "view"
    },
    {
      "constant": false,
      "inputs": [
        {
          "name": "_index",
          "type": "uint256"
        }
      ],
      "name": "voteProposal",
      "outputs": [
        {
          "name": "",
          "type": "bool"
        }
      ],
      "payable": false,
      "stateMutability": "nonpayable",
      "type": "function"
    },
    {
      "inputs": [],
      "payable": false,
      "stateMutability": "nonpayable",
      "type": "constructor"
    },
    {
      "anonymous": false,
      "inputs": [
        {
          "indexed": false,
          "name": "proposal",
          "type": "bytes32"
        }
      ],
      "name": "NewProposal",
      "type": "event"
    },
    {
      "anonymous": false,
      "inputs": [
        {
          "indexed": false,
          "name": "votesCount",
          "type": "uint256"
        },
        {
          "indexed": false,
          "name": "index",
          "type": "uint256"
        },
        {
          "indexed": false,
          "name": "proposal",
          "type": "bytes32"
        }
      ],
      "name": "NewVote",
      "type": "event"
    }
  ],
  "bytecode": "0x6060604052341561000f57600080fd5b33600260006101000a81548173ffffffffffffffffffffffffffffffffffffffff021916908373ffffffffffffffffffffffffffffffffffffffff1602179055506106068061005f6000396000f300606060405260043610610078576000357c0100000000000000000000000000000000000000000000000000000000900463ffffffff168063013cf08b1461007d57806306efe3b0146100bc5780630dc96015146100fb5780635df813301461016557806362564c481461019c578063807896d514610206575b600080fd5b341561008857600080fd5b61009e6004808035906020019091905050610241565b60405180826000191660001916815260200191505060405180910390f35b34156100c757600080fd5b6100e1600480803560001916906020019091905050610265565b604051808215151515815260200191505060405180910390f35b341561010657600080fd5b61010e610363565b6040518080602001828103825283818151815260200191508051906020019060200280838360005b83811015610151578082015181840152602081019050610136565b505050509050019250505060405180910390f35b341561017057600080fd5b61018660048080359060200190919050506103c1565b6040518082815260200191505060405180910390f35b34156101a757600080fd5b6101af6103e5565b6040518080602001828103825283818151815260200191508051906020019060200280838360005b838110156101f25780820151818401526020810190506101d7565b505050509050019250505060405180910390f35b341561021157600080fd5b6102276004808035906020019091905050610447565b604051808215151515815260200191505060405180910390f35b60008181548110151561025057fe5b90600052602060002090016000915090505481565b60003373ffffffffffffffffffffffffffffffffffffffff16600260009054906101000a900473ffffffffffffffffffffffffffffffffffffffff1673ffffffffffffffffffffffffffffffffffffffff161415156102c357600080fd5b600080548060010182816102d79190610510565b91600052602060002090016000849091909150906000191690555060018054806001018281610306919061053c565b9160005260206000209001600080909190915055507f2fa055ed2a16bf675cb77388be42cc263fd4f3feaac282dbcce8ae28691c960b8260405180826000191660001916815260200191505060405180910390a160019050919050565b61036b610568565b60018054806020026020016040519081016040528092919081815260200182805480156103b757602002820191906000526020600020905b8154815260200190600101908083116103a3575b5050505050905090565b6001818154811015156103d057fe5b90600052602060002090016000915090505481565b6103ed61057c565b600080548060200260200160405190810160405280929190818152602001828054801561043d57602002820191906000526020600020905b81546000191681526020019060010190808311610425575b5050505050905090565b60006001808381548110151561045957fe5b9060005260206000209001540160018381548110151561047557fe5b9060005260206000209001819055507f421ff2c2497d0c3cef68d50cf1858f49cfee523ee585e42d7019fef2f8f56e686001838154811015156104b457fe5b906000526020600020900154836000858154811015156104d057fe5b906000526020600020900154604051808481526020018381526020018260001916600019168152602001935050505060405180910390a160019050919050565b815481835581811511610537578183600052602060002091820191016105369190610590565b5b505050565b8154818355818115116105635781836000526020600020918201910161056291906105b5565b5b505050565b602060405190810160405280600081525090565b602060405190810160405280600081525090565b6105b291905b808211156105ae576000816000905550600101610596565b5090565b90565b6105d791905b808211156105d35760008160009055506001016105bb565b5090565b905600a165627a7a72305820818ec710fe8bd4f4609306c9cc7391c9122082389c62b43bebcb1dd4258c2ee90029",
  "source": "pragma solidity ^0.4.4;\n\ncontract Voting {\n\n    bytes32[] public proposals;\n    uint256[] public votes;\n    address owner;\n\n    event NewProposal(bytes32 proposal);\n    event NewVote(uint256 votesCount, uint256 index, bytes32 proposal);\n\n    function Voting() public {\n        owner = msg.sender;\n    }\n\n    modifier onlyOwner {\n        require(owner == msg.sender);\n        _;\n    }\n\n    function getProposals() public constant returns (bytes32[]) {\n        return proposals;\n    }\n\n    function getVotes() public constant returns (uint256[]) {\n        return votes;\n    }\n\n    function addProposal(bytes32 _proposal) public onlyOwner returns (bool) {\n        proposals.push(_proposal);\n        votes.push(0);\n        NewProposal(_proposal);\n        return true;\n    }\n\n    function voteProposal(uint256 _index) public returns(bool) {\n        votes[_index] = votes[_index] + 1;\n        NewVote(votes[_index], _index, proposals[_index]);\n        return true;\n    }\n\n}",
  "sourcePath": "/Users/fernandoortiz/Documents/Pruebas/blockchain/curso/taller1/voting/contracts/Voting.sol",
  "compiler": {
    "name": "solc",
    "version": "0.4.18+commit.9cf6e910.Emscripten.clang"
  },
  "schemaVersion": "1.0.1",
  "updatedAt": "2017-11-05T17:09:25.370Z"
}